{"abi":[{"type":"constructor","inputs":[{"name":"_wsteth","type":"address","internalType":"address"},{"name":"_mellowVault","type":"address","internalType":"address"},{"name":"_weth","type":"address","internalType":"address"}],"stateMutability":"nonpayable"},{"type":"function","name":"MELLOW_VAULT","inputs":[],"outputs":[{"name":"","type":"address","internalType":"address"}],"stateMutability":"view"},{"type":"function","name":"WETH","inputs":[],"outputs":[{"name":"","type":"address","internalType":"address"}],"stateMutability":"view"},{"type":"function","name":"WSTETH","inputs":[],"outputs":[{"name":"","type":"address","internalType":"address"}],"stateMutability":"view"},{"type":"function","name":"createVault","inputs":[{"name":"owner_","type":"address","internalType":"address"},{"name":"feeRecipient","type":"address","internalType":"address"},{"name":"unlockTime","type":"uint64","internalType":"uint64"},{"name":"goalWstETH","type":"uint256","internalType":"uint256"}],"outputs":[{"name":"vault","type":"address","internalType":"address"}],"stateMutability":"nonpayable"},{"type":"event","name":"VaultCreated","inputs":[{"name":"owner","type":"address","indexed":true,"internalType":"address"},{"name":"feeRecipient","type":"address","indexed":true,"internalType":"address"},{"name":"unlockTime","type":"uint64","indexed":false,"internalType":"uint64"},{"name":"goalWstETH","type":"uint256","indexed":false,"internalType":"uint256"},{"name":"vault","type":"address","indexed":false,"internalType":"address"}],"anonymous":false}],"bytecode":{"object":"0x60e03461011a57601f61228a38819003918201601f19168301916001600160401b0383118484101761011f5780849260609460405283398101031261011a5761004781610135565b90610060604061005960208401610135565b9201610135565b916001600160a01b038116151580610108575b806100f6575b156100c55760805260a05260c052604051612140908161014a82396080518181816061015261011f015260a0518181816101470152610279015260c05181818161016f01526102370152f35b60405162461bcd60e51b81526020600482015260096024820152682d22a927afa0a2222960b91b6044820152606490fd5b506001600160a01b0383161515610079565b506001600160a01b0382161515610073565b600080fd5b634e487b7160e01b600052604160045260246000fd5b51906001600160a01b038216820361011a5756fe608080604052600436101561001357600080fd5b60003560e01c90816389a643441461026657508063ad5c464814610221578063b645a45d146100955763d9fb643a1461004b57600080fd5b34610090576000366003190112610090576040517f00000000000000000000000000000000000000000000000000000000000000006001600160a01b03168152602090f35b600080fd5b34610090576080366003190112610090576004356001600160a01b03811690819003610090576024356001600160a01b0381169190829003610090576044359167ffffffffffffffff83168093036100905760643591604051611e628082019082821067ffffffffffffffff83111761020b5760e09183916102a983398481526001600160a01b037f0000000000000000000000000000000000000000000000000000000000000000811660208301527f0000000000000000000000000000000000000000000000000000000000000000811660408301527f00000000000000000000000000000000000000000000000000000000000000001660608201526080810186905260a0810188905260c081018790520301906000f09384156101ff5760607fc86de7f4574efbbf23f256f79d927aa8db15fa6340870480dc7f694a73f0d97d9160209660018060a01b03169560405191825287820152856040820152a3604051908152f35b6040513d6000823e3d90fd5b634e487b7160e01b600052604160045260246000fd5b34610090576000366003190112610090576040517f00000000000000000000000000000000000000000000000000000000000000006001600160a01b03168152602090f35b34610090576000366003190112610090577f00000000000000000000000000000000000000000000000000000000000000006001600160a01b03168152602090f3fe60e080604052346103195760e081611e62803803809161001f828561031e565b8339810103126103195761003281610357565b9061003f60208201610357565b9161004c60408301610357565b9261005960608401610357565b9261006660808201610357565b60a082015190916001600160401b03821682036103195760c001516001600160a01b039094169586156102e757600080546001600160a01b0319168817815560405197907f8be0079c531659141344cd1fd0a4f28419497f9722a3daafe3b4186f6b6457e08180a3600180556002546001600160a01b0390941696871515806102d5575b806102c3575b806102b1575b156102835760808890526001600160a01b0380831660a081905281891660c0529085166001600160f01b031987161760b085901b600160b01b600160f01b03161761027160a31b17600255600387905560405163095ea7b360e01b81526004810191909152600019602482015260208160448160008d5af190811561027757600091610235575b501561020157604051611af6908161036c8239608051818181610264015281816103df015281816104bb0152818161082c01528181610de501526115a2015260a051818181610383015281816105240152818161090901528181610e520152818161156e015281816117750152611a10015260c05181818161031701526111160152f35b60405162461bcd60e51b815260206004820152600c60248201526b1054141493d59157d190525360a21b6044820152606490fd5b6020813d60201161026f575b8161024e6020938361031e565b8101031261026b575190811515820361026857508161017d565b80fd5b5080fd5b3d9150610241565b6040513d6000823e3d90fd5b62461bcd60e51b81526020600482015260096024820152682d22a927afa0a2222960b91b6044820152606490fd5b506001600160a01b03841615156100f6565b506001600160a01b03871615156100f0565b506001600160a01b03821615156100ea565b60405162461bcd60e51b815260206004820152600a6024820152692d22a927afa7aba722a960b11b6044820152606490fd5b600080fd5b601f909101601f19168101906001600160401b0382119082101761034157604052565b634e487b7160e01b600052604160045260246000fd5b51906001600160a01b03821682036103195756fe6080604052600436101561001b575b361561001957600080fd5b005b6000803560e01c8063099476d01461169a5780631d117080146115325780631fa0ee4414610d3057806324a9d85314610d0b578063251c1aa314610ce0578063290f253914610b6e5780633afc297614610b505780634690484014610b2757806354198ce914610b03578063604e85b9146107a257806361771e491461076357806362dab6261461072a5780636cc88edb14610696578063866c010114610465578063884086d8146103b257806389a643441461036d5780638da5cb5b14610346578063ad5c464814610301578063b51459fe146102dc578063d0dbcd24146102b6578063d374da9f14610293578063d9fb643a1461024e578063dbe3469b1461021f578063de69b3aa146101e65763f2fde38b1461013a575061000e565b346101e35760203660031901126101e3576101536116be565b81546001600160a01b0381169161016b3384146117f2565b6001600160a01b03169182156101b15782907f8be0079c531659141344cd1fd0a4f28419497f9722a3daafe3b4186f6b6457e08580a36001600160a01b03191617815580f35b60405162461bcd60e51b815260206004820152600a6024820152692d22a927afa7aba722a960b11b6044820152606490fd5b80fd5b50346101e35760203660031901126101e3576020906040906001600160a01b0361020e6116be565b168152600583522054604051908152f35b50346101e35760203660031901126101e35761024560018060a01b0382541633146117f2565b60043560035580f35b50346101e357806003193601126101e3576040517f00000000000000000000000000000000000000000000000000000000000000006001600160a01b03168152602090f35b50346101e357806003193601126101e35760206102ae6119fb565b604051908152f35b50346101e357806003193601126101e357602060ff60025460f01c166040519015158152f35b50346101e357806003193601126101e35760206102f76119d1565b6040519015158152f35b50346101e357806003193601126101e3576040517f00000000000000000000000000000000000000000000000000000000000000006001600160a01b03168152602090f35b50346101e357806003193601126101e357546040516001600160a01b039091168152602090f35b50346101e357806003193601126101e3576040517f00000000000000000000000000000000000000000000000000000000000000006001600160a01b03168152602090f35b50346101e357806003193601126101e3576040516370a0823160e01b8152306004820152906020826024817f00000000000000000000000000000000000000000000000000000000000000006001600160a01b03165afa9081156104595790610421575b602090604051908152f35b506020813d602011610451575b8161043b60209383611702565b8101031261044c5760209051610416565b600080fd5b3d915061042e565b604051903d90823e3d90fd5b50346101e35760203660031901126101e3576004356104876001805414611882565b60026001558015610663576040516323b872dd60e01b815233600482015230602482015260448101829052602081606481867f00000000000000000000000000000000000000000000000000000000000000006001600160a01b03165af19081156105f1578391610634575b50156105fc57604051636e553f6560e01b815260048101829052306024820152602081604481866001600160a01b037f0000000000000000000000000000000000000000000000000000000000000000165af19081156105f15783916105bf575b5033835260056020526040832061056c8282546119c4565b90553383526006602052604083206105858382546119c4565b905560405191825260208201527f776d73173002e44dc1f2aaed70d07890500e83089a9c21ef5d7e7ebf89250e3760403392a26001805580f35b90506020813d6020116105e9575b816105da60209383611702565b8101031261044c575138610554565b3d91506105cd565b6040513d85823e3d90fd5b60405162461bcd60e51b815260206004820152601060248201526f1514905394d1915497d25397d190525360821b6044820152606490fd5b610656915060203d60201161065c575b61064e8183611702565b81019061182a565b386104f3565b503d610644565b60405162461bcd60e51b815260206004820152600b60248201526a5a45524f5f41535345545360a81b6044820152606490fd5b50346101e35760403660031901126101e3576106b06116be565b60243590811515809203610726577f5ae067a93e2af6193017728cb7e9ef5af1d750a5beb7b16a05b54d56f6f355e3916040916106f760018060a01b0386541633146117f2565b60018060a01b031690818552600460205282852060ff1981541660ff831617905582519182526020820152a180f35b8280fd5b50346101e35760203660031901126101e3576020906040906001600160a01b036107526116be565b168152600683522054604051908152f35b50346101e35760203660031901126101e35760209060ff906040906001600160a01b0361078e6116be565b168152600484522054166040519015158152f35b5060603660031901126101e3576107b76116be565b60243567ffffffffffffffff8111610726576107d79036906004016116d4565b91906107e66001805414611882565b60026001556001600160a01b038216808552600460205260408520549093906108119060ff166118bb565b3415610ad3576040516370a0823160e01b81523060048201527f00000000000000000000000000000000000000000000000000000000000000006001600160a01b0316939091869190602084602481895afa9384156105f1578394610a9b575b508293948160405192839283378101848152039134905af161089161191f565b5015610a63576020602492604051938480926370a0823160e01b82523060048301525afa80156109e3578490610a2f575b6108cc92506118fc565b60443581101580610a26575b156109ee57604051636e553f6560e01b81526004810182905230602482015290602082604481876001600160a01b037f0000000000000000000000000000000000000000000000000000000000000000165af19182156109e35784926109af575b503384526005602052604084206109518382546119c4565b905533845260066020526040842061096a8282546119c4565b9055604051928352346020840152604083015260608201527f7f2f45a11fb33879a148fe292bbe682a942ce069beac3d9ddd0f76fce037df2160803392a26001805580f35b9091506020813d6020116109db575b816109cb60209383611702565b8101031261044c57519038610939565b3d91506109be565b6040513d86823e3d90fd5b60405162461bcd60e51b815260206004820152601060248201526f125394d551919250d251539517d3d55560821b6044820152606490fd5b508015156108d8565b506020823d602011610a5b575b81610a4960209383611702565b8101031261044c576108cc91516108c2565b3d9150610a3c565b60405162461bcd60e51b815260206004820152601060248201526f1493d555115497d0d0531317d190525360821b6044820152606490fd5b925092506020823d602011610acb575b81610ab860209383611702565b8101031261044c57869283925193610871565b3d9150610aab565b60405162461bcd60e51b81526020600482015260086024820152670b48aa49ebe8aa8960c31b6044820152606490fd5b50346101e35760203660031901126101e35760206102ae610b226116be565b611972565b50346101e357806003193601126101e3576002546040516001600160a01b039091168152602090f35b50346101e357806003193601126101e3576020600354604051908152f35b50346101e35760803660031901126101e357610b886116be565b6024359061ffff8216808303610cdc576044359167ffffffffffffffff8316808403610cd85760643591821515809303610cd457610bd060018060a01b0388541633146117f2565b6001600160a01b0316928315610c9f576127108111610c6b577f5098e1fc2b4a89749ea05a9f13a8a5dab88233470a389fa292cd39a4aafee66a956080956002549160ff60f01b8660f01b16928760ff60f01b199161ffff60f01b1617169061ffff60a01b9060a01b16179067ffffffffffffffff60b01b9060b01b161717600255604051938452602084015260408301526060820152a180f35b60405162461bcd60e51b815260206004820152600c60248201526b08c8a8abea89e9ebe90928e960a31b6044820152606490fd5b60405162461bcd60e51b815260206004820152600d60248201526c2d22a927afa322a2afa0a2222960991b6044820152606490fd5b8680fd5b8580fd5b8380fd5b50346101e357806003193601126101e357602067ffffffffffffffff60025460b01c16604051908152f35b50346101e357806003193601126101e357602061ffff60025460a01c16604051908152f35b50346101e35760803660031901126101e3576004356024356001600160a01b03811690818103610cdc5760443567ffffffffffffffff811161152e57610d7a9036906004016116d4565b610d8a6001809593955414611882565b6002600155610d976119d1565b156114f7578186526004602052610db460ff6040882054166118bb565b3386526005602052604086205492851515806114ed575b156114b5576040516370a0823160e01b81523060048201527f00000000000000000000000000000000000000000000000000000000000000006001600160a01b03169290602081602481875afa9081156114aa578991611474575b50604051635d043b2960e11b81526004810189905230602482018190526044820152906020826064818d7f00000000000000000000000000000000000000000000000000000000000000006001600160a01b03165af1918215611344578a9261143c575b508115611405576040516370a0823160e01b815230600482015290602082602481895afa80156113fa578b906113c2575b610ec592506118fc565b90811061138f578893604051636eb1769f60e11b8152306004820152866024820152602081604481855afa8015611384578391879161134f575b501061123b575b5050828094504796826040519384928337810182815203925af1610f2861191f565b501561120357610f3882476118fc565b9182156110ff575b50606435821015806110f6575b156110ba57610f73612710610f6b61ffff60025460a01c168561195f565b0480936118fc565b908480808085335af1610f8461191f565b501561108557848080808660018060a01b03600254165af1610fa461191f565b501561105157610fb484826118fc565b33865260066020526040862054903387526005602052806040882055801560001461102857505050835b33855260066020526040852055604051928352602083015260408201527f48e4221d9a54d1188c4b73128e52b526c7e4c1d002899d7204f46f12f398c1d060603392a26001805580f35b6110319161195f565b811561103d5704610fde565b634e487b7160e01b86526012600452602486fd5b60405162461bcd60e51b815260206004820152600c60248201526b11551217d1915157d190525360a21b6044820152606490fd5b60405162461bcd60e51b815260206004820152600d60248201526c11551217d554d15497d1905253609a1b6044820152606490fd5b60405162461bcd60e51b8152602060048201526014602482015273125394d551919250d251539517d1551217d3d55560621b6044820152606490fd5b50811515610f4d565b6040516370a0823160e01b815230600482015285907f00000000000000000000000000000000000000000000000000000000000000006001600160a01b0316602082602481845afa9182156105f15783926111cf575b5081611164575b505050610f40565b809192939495503b1561072657602483926040519485938492632e1a7d4d60e01b845260048401525af180156111c4576111ae575b506111a490476118fc565b903884818061115c565b936111bd816111a49396611702565b9390611199565b6040513d87823e3d90fd5b9091506020813d6020116111fb575b816111eb60209383611702565b8101031261072657519038611155565b3d91506111de565b60405162461bcd60e51b815260206004820152601060248201526f1493d555115497d4d5d05417d190525360821b6044820152606490fd5b91935091936040519163095ea7b360e01b83528160048401528960248401526020836044818d855af19283156113445760209361127f918c91611327575b50611842565b60405193849263095ea7b360e01b845260048401526024830152818a604482800301925af190811561131c5787916112fd575b50156112c2578186913880610f06565b60405162461bcd60e51b81526020600482015260136024820152721054141493d59157d493d555115497d1905253606a1b6044820152606490fd5b611316915060203d60201161065c5761064e8183611702565b386112b2565b6040513d89823e3d90fd5b61133e9150853d871161065c5761064e8183611702565b38611279565b6040513d8c823e3d90fd5b9150506020813d60201161137c575b8161136b60209383611702565b81010312610cd85782905138610eff565b3d915061135e565b6040513d88823e3d90fd5b60405162461bcd60e51b815260206004820152600b60248201526a5753545f4d495353494e4760a81b6044820152606490fd5b506020823d6020116113f2575b816113dc60209383611702565b810103126113ee57610ec59151610ebb565b8a80fd5b3d91506113cf565b6040513d8d823e3d90fd5b60405162461bcd60e51b815260206004820152600f60248201526e16915493d7d054d4d15514d7d3d555608a1b6044820152606490fd5b9091506020813d60201161146c575b8161145860209383611702565b8101031261146857519038610e8a565b8980fd5b3d915061144b565b90506020813d6020116114a2575b8161148f60209383611702565b8101031261149e575138610e26565b8880fd5b3d9150611482565b6040513d8b823e3d90fd5b60405162461bcd60e51b815260206004820152601060248201526f10905117d4d210549157d05353d5539560821b6044820152606490fd5b5083861115610dcb565b60405162461bcd60e51b815260206004820152600f60248201526e15d2551211149055d7d313d0d2d151608a1b6044820152606490fd5b8480fd5b50346101e357806003193601126101e35761155760018060a01b0382541633146117f2565b60405163095ea7b360e01b81526001600160a01b037f0000000000000000000000000000000000000000000000000000000000000000811660048301819052602483018490528392917f0000000000000000000000000000000000000000000000000000000000000000169060208360448187865af19081156109e3576115e960449260209587916116835750611842565b604051948593849263095ea7b360e01b8452600484015260001960248401525af1908115611678578291611659575b50156116215780f35b60405162461bcd60e51b815260206004820152601060248201526f1054141493d59157d3505617d190525360821b6044820152606490fd5b611672915060203d60201161065c5761064e8183611702565b38611618565b6040513d84823e3d90fd5b61133e9150863d881161065c5761064e8183611702565b50346101e35760203660031901126101e35760206102ae6116b96116be565b61173a565b600435906001600160a01b038216820361044c57565b9181601f8401121561044c5782359167ffffffffffffffff831161044c576020838186019501011161044c57565b90601f8019910116810190811067ffffffffffffffff82111761172457604052565b634e487b7160e01b600052604160045260246000fd5b6001600160a01b031660009081526005602052604090205480156117ec5760405163266d6a8360e11b815260048101919091526020816024817f00000000000000000000000000000000000000000000000000000000000000006001600160a01b03165afa9081156117e0576000916117b1575090565b90506020813d6020116117d8575b816117cc60209383611702565b8101031261044c575190565b3d91506117bf565b6040513d6000823e3d90fd5b50600090565b156117f957565b60405162461bcd60e51b81526020600482015260096024820152682727aa2fa7aba722a960b91b6044820152606490fd5b9081602091031261044c5751801515810361044c5790565b1561184957565b60405162461bcd60e51b81526020600482015260116024820152701054141493d59157d6915493d7d1905253607a1b6044820152606490fd5b1561188957565b60405162461bcd60e51b815260206004820152600a6024820152695245454e5452414e435960b01b6044820152606490fd5b156118c257565b60405162461bcd60e51b81526020600482015260126024820152711493d555115497d393d517d0531313d5d15160721b6044820152606490fd5b9190820391821161190957565b634e487b7160e01b600052601160045260246000fd5b3d1561195a573d9067ffffffffffffffff8211611724576040519161194e601f8201601f191660200184611702565b82523d6000602084013e565b606090565b8181029291811591840414171561190957565b61197b8161173a565b6001600160a01b03909116600090815260066020526040902054808210156119b857906119a7916118fc565b600160ff1b81146119095760000390565b6119c1916118fc565b90565b9190820180921161190957565b60025460ff8160f01c169081156119e6575090565b67ffffffffffffffff915060b01c1642101590565b6040516370a0823160e01b81523060048201527f00000000000000000000000000000000000000000000000000000000000000006001600160a01b031690602081602481855afa9081156117e057600091611a8e575b508015611a875760209060246040518094819363266d6a8360e11b835260048301525afa9081156117e0576000916117b1575090565b5050600090565b906020823d602011611ab8575b81611aa860209383611702565b810103126101e357505138611a51565b3d9150611a9b56fea2646970667358221220a2ae2c13ae8f1882b56a8989619dbd2a14dd46ab78193081f5a8e1870d5e3b7064736f6c634300081c0033a264697066735822122097eaefc287d5d8e1392400231a96bed1b852b47b19dee7d4f2d2afa4d1505fda64736f6c634300081c0033","linkReferences":{}},"methodIdentifiers":{"MELLOW_VAULT()":"89a64344","WETH()":"ad5c4648","WSTETH()":"d9fb643a","createVault(address,address,uint64,uint256)":"b645a45d"},"id":0}