{"abi":[{"type":"constructor","inputs":[{"name":"_wsteth","type":"address","internalType":"address"},{"name":"_mellowVault","type":"address","internalType":"address"},{"name":"_weth","type":"address","internalType":"address"}],"stateMutability":"nonpayable"},{"type":"function","name":"MELLOW_VAULT","inputs":[],"outputs":[{"name":"","type":"address","internalType":"address"}],"stateMutability":"view"},{"type":"function","name":"WETH","inputs":[],"outputs":[{"name":"","type":"address","internalType":"address"}],"stateMutability":"view"},{"type":"function","name":"WSTETH","inputs":[],"outputs":[{"name":"","type":"address","internalType":"address"}],"stateMutability":"view"},{"type":"function","name":"createVault","inputs":[{"name":"owner_","type":"address","internalType":"address"},{"name":"feeRecipient","type":"address","internalType":"address"},{"name":"unlockTime","type":"uint64","internalType":"uint64"},{"name":"goalWstETH","type":"uint256","internalType":"uint256"}],"outputs":[{"name":"vault","type":"address","internalType":"address"}],"stateMutability":"nonpayable"},{"type":"event","name":"VaultCreated","inputs":[{"name":"owner","type":"address","indexed":true,"internalType":"address"},{"name":"feeRecipient","type":"address","indexed":true,"internalType":"address"},{"name":"unlockTime","type":"uint64","indexed":false,"internalType":"uint64"},{"name":"goalWstETH","type":"uint256","indexed":false,"internalType":"uint256"},{"name":"vault","type":"address","indexed":false,"internalType":"address"}],"anonymous":false}],"bytecode":{"object":"0x60e03461011a57601f6123dd38819003918201601f19168301916001600160401b0383118484101761011f5780849260609460405283398101031261011a5761004781610135565b90610060604061005960208401610135565b9201610135565b916001600160a01b038116151580610108575b806100f6575b156100c55760805260a05260c052604051612293908161014a82396080518181816061015261011f015260a0518181816101470152610279015260c05181818161016f01526102370152f35b60405162461bcd60e51b81526020600482015260096024820152682d22a927afa0a2222960b91b6044820152606490fd5b506001600160a01b0383161515610079565b506001600160a01b0382161515610073565b600080fd5b634e487b7160e01b600052604160045260246000fd5b51906001600160a01b038216820361011a5756fe608080604052600436101561001357600080fd5b60003560e01c90816389a643441461026657508063ad5c464814610221578063b645a45d146100955763d9fb643a1461004b57600080fd5b34610090576000366003190112610090576040517f00000000000000000000000000000000000000000000000000000000000000006001600160a01b03168152602090f35b600080fd5b34610090576080366003190112610090576004356001600160a01b03811690819003610090576024356001600160a01b0381169190829003610090576044359167ffffffffffffffff83168093036100905760643591604051611fb58082019082821067ffffffffffffffff83111761020b5760e09183916102a983398481526001600160a01b037f0000000000000000000000000000000000000000000000000000000000000000811660208301527f0000000000000000000000000000000000000000000000000000000000000000811660408301527f00000000000000000000000000000000000000000000000000000000000000001660608201526080810186905260a0810188905260c081018790520301906000f09384156101ff5760607fc86de7f4574efbbf23f256f79d927aa8db15fa6340870480dc7f694a73f0d97d9160209660018060a01b03169560405191825287820152856040820152a3604051908152f35b6040513d6000823e3d90fd5b634e487b7160e01b600052604160045260246000fd5b34610090576000366003190112610090576040517f00000000000000000000000000000000000000000000000000000000000000006001600160a01b03168152602090f35b34610090576000366003190112610090577f00000000000000000000000000000000000000000000000000000000000000006001600160a01b03168152602090f3fe60e080604052346103295760e081611fb5803803809161001f828561032e565b8339810103126103295761003281610367565b9061003f60208201610367565b9161004c60408301610367565b9261005960608401610367565b9261006660808201610367565b60a0820151916001600160401b03831683036103295760c001516001600160a01b039094169586156102f757600080546001600160a01b0319168817815560405197907f8be0079c531659141344cd1fd0a4f28419497f9722a3daafe3b4186f6b6457e08180a3600180556002546001600160a01b0390941696871515806102e5575b806102d3575b806102c1575b156102935760808890526001600160a01b0380831660a081905281891660c052600480546001600160a01b03191692861692831781556001600160f01b0319881690921760b087901b600160b01b600160f01b03161761027160a31b17600255600388905560405163095ea7b360e01b815291820152600019602482015260208160448160008d5af190811561028757600091610245575b501561021157604051611c39908161037c823960805181818161027a015281816104aa015281816105860152818161094601528181610f2801526116e5015260a05181818161044e015281816105ef01528181610a2301528181610f95015281816116b1015281816118b80152611b53015260c0518181816103e201526112590152f35b60405162461bcd60e51b815260206004820152600c60248201526b1054141493d59157d190525360a21b6044820152606490fd5b6020813d60201161027f575b8161025e6020938361032e565b8101031261027b575190811515820361027857508161018d565b80fd5b5080fd5b3d9150610251565b6040513d6000823e3d90fd5b62461bcd60e51b81526020600482015260096024820152682d22a927afa0a2222960b91b6044820152606490fd5b506001600160a01b03831615156100f5565b506001600160a01b03871615156100ef565b506001600160a01b03821615156100e9565b60405162461bcd60e51b815260206004820152600a6024820152692d22a927afa7aba722a960b11b6044820152606490fd5b600080fd5b601f909101601f19168101906001600160401b0382119082101761035157604052565b634e487b7160e01b600052604160045260246000fd5b51906001600160a01b03821682036103295756fe6080604052600436101561001b575b361561001957600080fd5b005b6000803560e01c8063099476d0146117dd5780631d117080146116755780631fa0ee4414610e7357806324a9d85314610e4e578063251c1aa314610e23578063290f253914610cb15780633afc297614610c935780634690484014610c6a57806354198ce914610c46578063570ca73514610c1d578063604e85b9146108bc57806361771e491461087d57806362dab626146108445780636cc88edb14610761578063866c010114610530578063884086d81461047d57806389a64344146104385780638da5cb5b14610411578063ad5c4648146103cc578063b3ab15fb14610317578063b51459fe146102f2578063d0dbcd24146102cc578063d374da9f146102a9578063d9fb643a14610264578063dbe3469b14610235578063de69b3aa146101fc5763f2fde38b14610150575061000e565b346101f95760203660031901126101f957610169611801565b81546001600160a01b03811691610181338414611935565b6001600160a01b03169182156101c75782907f8be0079c531659141344cd1fd0a4f28419497f9722a3daafe3b4186f6b6457e08580a36001600160a01b03191617815580f35b60405162461bcd60e51b815260206004820152600a6024820152692d22a927afa7aba722a960b11b6044820152606490fd5b80fd5b50346101f95760203660031901126101f9576020906040906001600160a01b03610224611801565b168152600683522054604051908152f35b50346101f95760203660031901126101f95761025b60018060a01b038254163314611935565b60043560035580f35b50346101f957806003193601126101f9576040517f00000000000000000000000000000000000000000000000000000000000000006001600160a01b03168152602090f35b50346101f957806003193601126101f95760206102c4611b3e565b604051908152f35b50346101f957806003193601126101f957602060ff60025460f01c166040519015158152f35b50346101f957806003193601126101f957602061030d611b14565b6040519015158152f35b50346101f95760203660031901126101f957610331611801565b61034560018060a01b038354163314611935565b6001600160a01b0316801561039757600454816001600160a01b0382167ffbe5b6cbafb274f445d7fed869dc77a838d8243a22c460de156560e8857cad038580a36001600160a01b0319161760045580f35b60405162461bcd60e51b815260206004820152600d60248201526c2d22a927afa7a822a920aa27a960991b6044820152606490fd5b50346101f957806003193601126101f9576040517f00000000000000000000000000000000000000000000000000000000000000006001600160a01b03168152602090f35b50346101f957806003193601126101f957546040516001600160a01b039091168152602090f35b50346101f957806003193601126101f9576040517f00000000000000000000000000000000000000000000000000000000000000006001600160a01b03168152602090f35b50346101f957806003193601126101f9576040516370a0823160e01b8152306004820152906020826024817f00000000000000000000000000000000000000000000000000000000000000006001600160a01b03165afa90811561052457906104ec575b602090604051908152f35b506020813d60201161051c575b8161050660209383611845565b8101031261051757602090516104e1565b600080fd5b3d91506104f9565b604051903d90823e3d90fd5b50346101f95760203660031901126101f95760043561055260018054146119c5565b6002600155801561072e576040516323b872dd60e01b815233600482015230602482015260448101829052602081606481867f00000000000000000000000000000000000000000000000000000000000000006001600160a01b03165af19081156106bc5783916106ff575b50156106c757604051636e553f6560e01b815260048101829052306024820152602081604481866001600160a01b037f0000000000000000000000000000000000000000000000000000000000000000165af19081156106bc57839161068a575b50338352600660205260408320610637828254611b07565b9055338352600760205260408320610650838254611b07565b905560405191825260208201527f776d73173002e44dc1f2aaed70d07890500e83089a9c21ef5d7e7ebf89250e3760403392a26001805580f35b90506020813d6020116106b4575b816106a560209383611845565b8101031261051757513861061f565b3d9150610698565b6040513d85823e3d90fd5b60405162461bcd60e51b815260206004820152601060248201526f1514905394d1915497d25397d190525360821b6044820152606490fd5b610721915060203d602011610727575b6107198183611845565b81019061196d565b386105be565b503d61070f565b60405162461bcd60e51b815260206004820152600b60248201526a5a45524f5f41535345545360a81b6044820152606490fd5b50346101f95760403660031901126101f95761077b611801565b602435908115158092036108405782546001600160a01b03163314801561082c575b156107f6577f5ae067a93e2af6193017728cb7e9ef5af1d750a5beb7b16a05b54d56f6f355e39160409160018060a01b031690818552600560205282852060ff1981541660ff831617905582519182526020820152a180f35b60405162461bcd60e51b815260206004820152600e60248201526d1393d517d055551213d49256915160921b6044820152606490fd5b506004546001600160a01b0316331461079d565b8280fd5b50346101f95760203660031901126101f9576020906040906001600160a01b0361086c611801565b168152600783522054604051908152f35b50346101f95760203660031901126101f95760209060ff906040906001600160a01b036108a8611801565b168152600584522054166040519015158152f35b5060603660031901126101f9576108d1611801565b60243567ffffffffffffffff8111610840576108f1903690600401611817565b919061090060018054146119c5565b60026001556001600160a01b0382168085526005602052604085205490939061092b9060ff166119fe565b3415610bed576040516370a0823160e01b81523060048201527f00000000000000000000000000000000000000000000000000000000000000006001600160a01b0316939091869190602084602481895afa9384156106bc578394610bb5575b508293948160405192839283378101848152039134905af16109ab611a62565b5015610b7d576020602492604051938480926370a0823160e01b82523060048301525afa8015610afd578490610b49575b6109e69250611a3f565b60443581101580610b40575b15610b0857604051636e553f6560e01b81526004810182905230602482015290602082604481876001600160a01b037f0000000000000000000000000000000000000000000000000000000000000000165af1918215610afd578492610ac9575b50338452600660205260408420610a6b838254611b07565b9055338452600760205260408420610a84828254611b07565b9055604051928352346020840152604083015260608201527f7f2f45a11fb33879a148fe292bbe682a942ce069beac3d9ddd0f76fce037df2160803392a26001805580f35b9091506020813d602011610af5575b81610ae560209383611845565b8101031261051757519038610a53565b3d9150610ad8565b6040513d86823e3d90fd5b60405162461bcd60e51b815260206004820152601060248201526f125394d551919250d251539517d3d55560821b6044820152606490fd5b508015156109f2565b506020823d602011610b75575b81610b6360209383611845565b81010312610517576109e691516109dc565b3d9150610b56565b60405162461bcd60e51b815260206004820152601060248201526f1493d555115497d0d0531317d190525360821b6044820152606490fd5b925092506020823d602011610be5575b81610bd260209383611845565b810103126105175786928392519361098b565b3d9150610bc5565b60405162461bcd60e51b81526020600482015260086024820152670b48aa49ebe8aa8960c31b6044820152606490fd5b50346101f957806003193601126101f9576004546040516001600160a01b039091168152602090f35b50346101f95760203660031901126101f95760206102c4610c65611801565b611ab5565b50346101f957806003193601126101f9576002546040516001600160a01b039091168152602090f35b50346101f957806003193601126101f9576020600354604051908152f35b50346101f95760803660031901126101f957610ccb611801565b6024359061ffff8216808303610e1f576044359167ffffffffffffffff8316808403610e1b5760643591821515809303610e1757610d1360018060a01b038854163314611935565b6001600160a01b0316928315610de2576127108111610dae577f5098e1fc2b4a89749ea05a9f13a8a5dab88233470a389fa292cd39a4aafee66a956080956002549160ff60f01b8660f01b16928760ff60f01b199161ffff60f01b1617169061ffff60a01b9060a01b16179067ffffffffffffffff60b01b9060b01b161717600255604051938452602084015260408301526060820152a180f35b60405162461bcd60e51b815260206004820152600c60248201526b08c8a8abea89e9ebe90928e960a31b6044820152606490fd5b60405162461bcd60e51b815260206004820152600d60248201526c2d22a927afa322a2afa0a2222960991b6044820152606490fd5b8680fd5b8580fd5b8380fd5b50346101f957806003193601126101f957602067ffffffffffffffff60025460b01c16604051908152f35b50346101f957806003193601126101f957602061ffff60025460a01c16604051908152f35b50346101f95760803660031901126101f9576004356024356001600160a01b03811690818103610e1f5760443567ffffffffffffffff811161167157610ebd903690600401611817565b610ecd60018095939554146119c5565b6002600155610eda611b14565b1561163a578186526005602052610ef760ff6040882054166119fe565b338652600660205260408620549285151580611630575b156115f8576040516370a0823160e01b81523060048201527f00000000000000000000000000000000000000000000000000000000000000006001600160a01b03169290602081602481875afa9081156115ed5789916115b7575b50604051635d043b2960e11b81526004810189905230602482018190526044820152906020826064818d7f00000000000000000000000000000000000000000000000000000000000000006001600160a01b03165af1918215611487578a9261157f575b508115611548576040516370a0823160e01b815230600482015290602082602481895afa801561153d578b90611505575b6110089250611a3f565b9081106114d2578893604051636eb1769f60e11b8152306004820152866024820152602081604481855afa80156114c75783918791611492575b501061137e575b5050828094504796826040519384928337810182815203925af161106b611a62565b50156113465761107b8247611a3f565b918215611242575b5060643582101580611239575b156111fd576110b66127106110ae61ffff60025460a01c1685611aa2565b048093611a3f565b908480808085335af16110c7611a62565b50156111c857848080808660018060a01b03600254165af16110e7611a62565b5015611194576110f78482611a3f565b33865260076020526040862054903387526006602052806040882055801560001461116b57505050835b33855260076020526040852055604051928352602083015260408201527f48e4221d9a54d1188c4b73128e52b526c7e4c1d002899d7204f46f12f398c1d060603392a26001805580f35b61117491611aa2565b81156111805704611121565b634e487b7160e01b86526012600452602486fd5b60405162461bcd60e51b815260206004820152600c60248201526b11551217d1915157d190525360a21b6044820152606490fd5b60405162461bcd60e51b815260206004820152600d60248201526c11551217d554d15497d1905253609a1b6044820152606490fd5b60405162461bcd60e51b8152602060048201526014602482015273125394d551919250d251539517d1551217d3d55560621b6044820152606490fd5b50811515611090565b6040516370a0823160e01b815230600482015285907f00000000000000000000000000000000000000000000000000000000000000006001600160a01b0316602082602481845afa9182156106bc578392611312575b50816112a7575b505050611083565b809192939495503b1561084057602483926040519485938492632e1a7d4d60e01b845260048401525af18015611307576112f1575b506112e79047611a3f565b903884818061129f565b93611300816112e79396611845565b93906112dc565b6040513d87823e3d90fd5b9091506020813d60201161133e575b8161132e60209383611845565b8101031261084057519038611298565b3d9150611321565b60405162461bcd60e51b815260206004820152601060248201526f1493d555115497d4d5d05417d190525360821b6044820152606490fd5b91935091936040519163095ea7b360e01b83528160048401528960248401526020836044818d855af1928315611487576020936113c2918c9161146a575b50611985565b60405193849263095ea7b360e01b845260048401526024830152818a604482800301925af190811561145f578791611440575b5015611405578186913880611049565b60405162461bcd60e51b81526020600482015260136024820152721054141493d59157d493d555115497d1905253606a1b6044820152606490fd5b611459915060203d602011610727576107198183611845565b386113f5565b6040513d89823e3d90fd5b6114819150853d8711610727576107198183611845565b386113bc565b6040513d8c823e3d90fd5b9150506020813d6020116114bf575b816114ae60209383611845565b81010312610e1b5782905138611042565b3d91506114a1565b6040513d88823e3d90fd5b60405162461bcd60e51b815260206004820152600b60248201526a5753545f4d495353494e4760a81b6044820152606490fd5b506020823d602011611535575b8161151f60209383611845565b81010312611531576110089151610ffe565b8a80fd5b3d9150611512565b6040513d8d823e3d90fd5b60405162461bcd60e51b815260206004820152600f60248201526e16915493d7d054d4d15514d7d3d555608a1b6044820152606490fd5b9091506020813d6020116115af575b8161159b60209383611845565b810103126115ab57519038610fcd565b8980fd5b3d915061158e565b90506020813d6020116115e5575b816115d260209383611845565b810103126115e1575138610f69565b8880fd5b3d91506115c5565b6040513d8b823e3d90fd5b60405162461bcd60e51b815260206004820152601060248201526f10905117d4d210549157d05353d5539560821b6044820152606490fd5b5083861115610f0e565b60405162461bcd60e51b815260206004820152600f60248201526e15d2551211149055d7d313d0d2d151608a1b6044820152606490fd5b8480fd5b50346101f957806003193601126101f95761169a60018060a01b038254163314611935565b60405163095ea7b360e01b81526001600160a01b037f0000000000000000000000000000000000000000000000000000000000000000811660048301819052602483018490528392917f0000000000000000000000000000000000000000000000000000000000000000169060208360448187865af1908115610afd5761172c60449260209587916117c65750611985565b604051948593849263095ea7b360e01b8452600484015260001960248401525af19081156117bb57829161179c575b50156117645780f35b60405162461bcd60e51b815260206004820152601060248201526f1054141493d59157d3505617d190525360821b6044820152606490fd5b6117b5915060203d602011610727576107198183611845565b3861175b565b6040513d84823e3d90fd5b6114819150863d8811610727576107198183611845565b50346101f95760203660031901126101f95760206102c46117fc611801565b61187d565b600435906001600160a01b038216820361051757565b9181601f840112156105175782359167ffffffffffffffff8311610517576020838186019501011161051757565b90601f8019910116810190811067ffffffffffffffff82111761186757604052565b634e487b7160e01b600052604160045260246000fd5b6001600160a01b0316600090815260066020526040902054801561192f5760405163266d6a8360e11b815260048101919091526020816024817f00000000000000000000000000000000000000000000000000000000000000006001600160a01b03165afa908115611923576000916118f4575090565b90506020813d60201161191b575b8161190f60209383611845565b81010312610517575190565b3d9150611902565b6040513d6000823e3d90fd5b50600090565b1561193c57565b60405162461bcd60e51b81526020600482015260096024820152682727aa2fa7aba722a960b91b6044820152606490fd5b90816020910312610517575180151581036105175790565b1561198c57565b60405162461bcd60e51b81526020600482015260116024820152701054141493d59157d6915493d7d1905253607a1b6044820152606490fd5b156119cc57565b60405162461bcd60e51b815260206004820152600a6024820152695245454e5452414e435960b01b6044820152606490fd5b15611a0557565b60405162461bcd60e51b81526020600482015260126024820152711493d555115497d393d517d0531313d5d15160721b6044820152606490fd5b91908203918211611a4c57565b634e487b7160e01b600052601160045260246000fd5b3d15611a9d573d9067ffffffffffffffff82116118675760405191611a91601f8201601f191660200184611845565b82523d6000602084013e565b606090565b81810292918115918404141715611a4c57565b611abe8161187d565b6001600160a01b0390911660009081526007602052604090205480821015611afb5790611aea91611a3f565b600160ff1b8114611a4c5760000390565b611b0491611a3f565b90565b91908201809211611a4c57565b60025460ff8160f01c16908115611b29575090565b67ffffffffffffffff915060b01c1642101590565b6040516370a0823160e01b81523060048201527f00000000000000000000000000000000000000000000000000000000000000006001600160a01b031690602081602481855afa90811561192357600091611bd1575b508015611bca5760209060246040518094819363266d6a8360e11b835260048301525afa908115611923576000916118f4575090565b5050600090565b906020823d602011611bfb575b81611beb60209383611845565b810103126101f957505138611b94565b3d9150611bde56fea2646970667358221220d597194c51545b01072f7b2da6ddd7d71c3d63a977145d2cb295ad2cb8a0ad1264736f6c634300081c0033a2646970667358221220b56555618b8afbaf13158a0db5f824a48fd55a7ffb462438f9ccc92bef20638864736f6c634300081c0033","linkReferences":{}},"methodIdentifiers":{"MELLOW_VAULT()":"89a64344","WETH()":"ad5c4648","WSTETH()":"d9fb643a","createVault(address,address,uint64,uint256)":"b645a45d"},"id":0}