{"abi":[{"type":"constructor","inputs":[{"name":"_owner","type":"address","internalType":"address"},{"name":"_wsteth","type":"address","internalType":"address"},{"name":"_mellowVault","type":"address","internalType":"address"},{"name":"_weth","type":"address","internalType":"address"},{"name":"_feeRecipient","type":"address","internalType":"address"},{"name":"_unlockTime","type":"uint64","internalType":"uint64"},{"name":"_goalWstETH","type":"uint256","internalType":"uint256"},{"name":"_name","type":"string","internalType":"string"}],"stateMutability":"nonpayable"},{"type":"receive","stateMutability":"payable"},{"type":"function","name":"MELLOW_VAULT","inputs":[],"outputs":[{"name":"","type":"address","internalType":"contract IERC4626"}],"stateMutability":"view"},{"type":"function","name":"WETH","inputs":[],"outputs":[{"name":"","type":"address","internalType":"contract IWETH"}],"stateMutability":"view"},{"type":"function","name":"WSTETH","inputs":[],"outputs":[{"name":"","type":"address","internalType":"contract IERC20"}],"stateMutability":"view"},{"type":"function","name":"canWithdraw","inputs":[],"outputs":[{"name":"","type":"bool","internalType":"bool"}],"stateMutability":"view"},{"type":"function","name":"currentAssetsOf","inputs":[{"name":"user","type":"address","internalType":"address"}],"outputs":[{"name":"assets","type":"uint256","internalType":"uint256"}],"stateMutability":"view"},{"type":"function","name":"depositETHViaRouter","inputs":[{"name":"router","type":"address","internalType":"address"},{"name":"swapCalldata","type":"bytes","internalType":"bytes"},{"name":"minWstOut","type":"uint256","internalType":"uint256"}],"outputs":[],"stateMutability":"payable"},{"type":"function","name":"depositWstETH","inputs":[{"name":"assets","type":"uint256","internalType":"uint256"}],"outputs":[],"stateMutability":"nonpayable"},{"type":"function","name":"depositWstETHFor","inputs":[{"name":"assets","type":"uint256","internalType":"uint256"},{"name":"beneficiary","type":"address","internalType":"address"}],"outputs":[],"stateMutability":"nonpayable"},{"type":"function","name":"feeBps","inputs":[],"outputs":[{"name":"","type":"uint16","internalType":"uint16"}],"stateMutability":"view"},{"type":"function","name":"feeRecipient","inputs":[],"outputs":[{"name":"","type":"address","internalType":"address"}],"stateMutability":"view"},{"type":"function","name":"goalWstETH","inputs":[],"outputs":[{"name":"","type":"uint256","internalType":"uint256"}],"stateMutability":"view"},{"type":"function","name":"isRouterAllowed","inputs":[{"name":"","type":"address","internalType":"address"}],"outputs":[{"name":"","type":"bool","internalType":"bool"}],"stateMutability":"view"},{"type":"function","name":"name","inputs":[],"outputs":[{"name":"","type":"string","internalType":"string"}],"stateMutability":"view"},{"type":"function","name":"operator","inputs":[],"outputs":[{"name":"","type":"address","internalType":"address"}],"stateMutability":"view"},{"type":"function","name":"owner","inputs":[],"outputs":[{"name":"","type":"address","internalType":"address"}],"stateMutability":"view"},{"type":"function","name":"profitOf","inputs":[{"name":"user","type":"address","internalType":"address"}],"outputs":[{"name":"","type":"int256","internalType":"int256"}],"stateMutability":"view"},{"type":"function","name":"rawWstETHBalance","inputs":[],"outputs":[{"name":"","type":"uint256","internalType":"uint256"}],"stateMutability":"view"},{"type":"function","name":"resetMellowAllowance","inputs":[],"outputs":[],"stateMutability":"nonpayable"},{"type":"function","name":"setGoalWstETH","inputs":[{"name":"_goalWstETH","type":"uint256","internalType":"uint256"}],"outputs":[],"stateMutability":"nonpayable"},{"type":"function","name":"setOperator","inputs":[{"name":"newOperator","type":"address","internalType":"address"}],"outputs":[],"stateMutability":"nonpayable"},{"type":"function","name":"setParams","inputs":[{"name":"_feeRecipient","type":"address","internalType":"address"},{"name":"_feeBps","type":"uint16","internalType":"uint16"},{"name":"_unlockTime","type":"uint64","internalType":"uint64"},{"name":"_withdrawalsEnabled","type":"bool","internalType":"bool"}],"outputs":[],"stateMutability":"nonpayable"},{"type":"function","name":"setRouterAllowed","inputs":[{"name":"router","type":"address","internalType":"address"},{"name":"allowed","type":"bool","internalType":"bool"}],"outputs":[],"stateMutability":"nonpayable"},{"type":"function","name":"totalWstETHAssets","inputs":[],"outputs":[{"name":"assets","type":"uint256","internalType":"uint256"}],"stateMutability":"view"},{"type":"function","name":"transferOwnership","inputs":[{"name":"newOwner","type":"address","internalType":"address"}],"outputs":[],"stateMutability":"nonpayable"},{"type":"function","name":"unlockTime","inputs":[],"outputs":[{"name":"","type":"uint64","internalType":"uint64"}],"stateMutability":"view"},{"type":"function","name":"userPrincipal","inputs":[{"name":"","type":"address","internalType":"address"}],"outputs":[{"name":"","type":"uint256","internalType":"uint256"}],"stateMutability":"view"},{"type":"function","name":"userShares","inputs":[{"name":"","type":"address","internalType":"address"}],"outputs":[{"name":"","type":"uint256","internalType":"uint256"}],"stateMutability":"view"},{"type":"function","name":"withdrawSplitToETH","inputs":[{"name":"sharesToRedeem","type":"uint256","internalType":"uint256"},{"name":"router","type":"address","internalType":"address"},{"name":"swapCalldata","type":"bytes","internalType":"bytes"},{"name":"minEthOut","type":"uint256","internalType":"uint256"}],"outputs":[],"stateMutability":"nonpayable"},{"type":"function","name":"withdrawalsEnabled","inputs":[],"outputs":[{"name":"","type":"bool","internalType":"bool"}],"stateMutability":"view"},{"type":"event","name":"DepositedETH","inputs":[{"name":"user","type":"address","indexed":true,"internalType":"address"},{"name":"router","type":"address","indexed":false,"internalType":"address"},{"name":"ethIn","type":"uint256","indexed":false,"internalType":"uint256"},{"name":"wstBought","type":"uint256","indexed":false,"internalType":"uint256"},{"name":"sharesOut","type":"uint256","indexed":false,"internalType":"uint256"}],"anonymous":false},{"type":"event","name":"DepositedWst","inputs":[{"name":"user","type":"address","indexed":true,"internalType":"address"},{"name":"wstIn","type":"uint256","indexed":false,"internalType":"uint256"},{"name":"sharesOut","type":"uint256","indexed":false,"internalType":"uint256"}],"anonymous":false},{"type":"event","name":"OperatorUpdated","inputs":[{"name":"previousOperator","type":"address","indexed":true,"internalType":"address"},{"name":"newOperator","type":"address","indexed":true,"internalType":"address"}],"anonymous":false},{"type":"event","name":"OwnershipTransferred","inputs":[{"name":"previousOwner","type":"address","indexed":true,"internalType":"address"},{"name":"newOwner","type":"address","indexed":true,"internalType":"address"}],"anonymous":false},{"type":"event","name":"ParamsUpdated","inputs":[{"name":"feeRecipient","type":"address","indexed":false,"internalType":"address"},{"name":"feeBps","type":"uint16","indexed":false,"internalType":"uint16"},{"name":"unlockTime","type":"uint64","indexed":false,"internalType":"uint64"},{"name":"withdrawalsEnabled","type":"bool","indexed":false,"internalType":"bool"}],"anonymous":false},{"type":"event","name":"RouterAllowed","inputs":[{"name":"router","type":"address","indexed":false,"internalType":"address"},{"name":"allowed","type":"bool","indexed":false,"internalType":"bool"}],"anonymous":false},{"type":"event","name":"WithdrawnToETH","inputs":[{"name":"user","type":"address","indexed":true,"internalType":"address"},{"name":"sharesIn","type":"uint256","indexed":false,"internalType":"uint256"},{"name":"ethUser","type":"uint256","indexed":false,"internalType":"uint256"},{"name":"ethFee","type":"uint256","indexed":false,"internalType":"uint256"}],"anonymous":false}],"bytecode":{"object":"0x60e0806040523461053957612566803803809161001c828561053e565b83398101610100828203126105395761003482610561565b9061004160208401610561565b9261004e60408201610561565b9361005b60608301610561565b9361006860808401610561565b60a0840151916001600160401b03831683036105395760c085015160e086015190956001600160401b038211610539570186601f82011215610539578051906001600160401b03821161047857604051976100cd601f8401601f19166020018a61053e565b828952602083830101116105395760005b8281106105245750506000908701602001526001600160a01b03169687156104f257600080546001600160a01b0319168917815560405198907f8be0079c531659141344cd1fd0a4f28419497f9722a3daafe3b4186f6b6457e08180a3600180556003546001600160a01b0390941697881515806104e0575b806104ce575b806104bc575b1561048e575060808890526001600160a01b0390811660a081905296811660c052600580546001600160a01b0319169290911691821790556001600160f01b031990921690911760b09190911b600160b01b600160f01b03161761027160a31b176003556004558051906001600160401b03821161047857600254600181811c9116801561046e575b602082101461045857601f81116103f3575b50602090601f8311600114610383579282600095936044936020968892610378575b50508160011b9187199060031b1c1916176002555b604051948593849263095ea7b360e01b84526004840152811960248401525af190811561036c5760009161032a575b50156102f657604051611ff09081610576823960805181818161028f015281816104be015281816107300152818161081401528181610b01015281816110d90152611892015260a051818181610522015281816106d40152818161087701528181610bde015281816111460152818161185e01528181611bb90152611f0a015260c0518181816103f7015261140a0152f35b60405162461bcd60e51b815260206004820152600c60248201526b1054141493d59157d190525360a21b6044820152606490fd5b6020813d602011610364575b816103436020938361053e565b81010312610360575190811515820361035d575038610264565b80fd5b5080fd5b3d9150610336565b6040513d6000823e3d90fd5b015190503880610220565b90601f198316916002600052816000209260005b8181106103db575093604493602096936001938360009a98106103c3575b505050811b01600255610235565b0151881960f88460031b161c191690553880806103b5565b92936020600181928786015181550195019301610397565b60026000527f405787fa12a823e0f2b7631cc41b3ba8828b3321ca811111fa75cd3aa3bb5ace601f840160051c8101916020851061044e575b601f0160051c01905b81811061044257506101fe565b60008155600101610435565b909150819061042c565b634e487b7160e01b600052602260045260246000fd5b90607f16906101ec565b634e487b7160e01b600052604160045260246000fd5b62461bcd60e51b81526020600482015260096024820152682d22a927afa0a2222960b91b6044820152606490fd5b506001600160a01b0383161515610163565b506001600160a01b038816151561015d565b506001600160a01b0382161515610157565b60405162461bcd60e51b815260206004820152600a6024820152692d22a927afa7aba722a960b11b6044820152606490fd5b80602080928401015182828c010152016100de565b600080fd5b601f909101601f19168101906001600160401b0382119082101761047857604052565b51906001600160a01b03821682036105395756fe608080604052600436101561001d575b50361561001b57600080fd5b005b600090813560e01c90816306fdde03146119ae57508063099476d01461198a5780631d117080146118225780631fa0ee441461102357806324a9d85314610ffe578063251c1aa314610fd3578063290f253914610e615780633afc297614610e435780634690484014610e1a57806354198ce914610df6578063570ca73514610dcd578063604e85b914610a7757806361771e4914610a3857806362dab626146109ff5780636cc88edb1461094f578063866c0101146107b1578063884086d81461070357806389a64344146106be5780638da5cb5b146106975780638f3d2d7514610426578063ad5c4648146103e1578063b3ab15fb1461032c578063b51459fe14610307578063d0dbcd24146102e1578063d374da9f146102be578063d9fb643a14610279578063dbe3469b1461024a578063de69b3aa146102115763f2fde38b0361000f573461020e57602036600319011261020e5761017e611b24565b81546001600160a01b03811691610196338414611c36565b6001600160a01b03169182156101dc5782907f8be0079c531659141344cd1fd0a4f28419497f9722a3daafe3b4186f6b6457e08580a36001600160a01b03191617815580f35b60405162461bcd60e51b815260206004820152600a6024820152692d22a927afa7aba722a960b11b6044820152606490fd5b80fd5b503461020e57602036600319011261020e576020906040906001600160a01b03610239611b24565b168152600783522054604051908152f35b503461020e57602036600319011261020e5761027060018060a01b038254163314611c36565b60043560045580f35b503461020e578060031936011261020e576040517f00000000000000000000000000000000000000000000000000000000000000006001600160a01b03168152602090f35b503461020e578060031936011261020e5760206102d9611ef5565b604051908152f35b503461020e578060031936011261020e57602060ff60035460f01c166040519015158152f35b503461020e578060031936011261020e576020610322611ecb565b6040519015158152f35b503461020e57602036600319011261020e57610346611b24565b61035a60018060a01b038354163314611c36565b6001600160a01b031680156103ac57600554816001600160a01b0382167ffbe5b6cbafb274f445d7fed869dc77a838d8243a22c460de156560e8857cad038580a36001600160a01b0319161760055580f35b60405162461bcd60e51b815260206004820152600d60248201526c2d22a927afa7a822a920aa27a960991b6044820152606490fd5b503461020e578060031936011261020e576040517f00000000000000000000000000000000000000000000000000000000000000006001600160a01b03168152602090f35b503461020e57604036600319011261020e57600435610443611b3a565b82546001600160a01b031633148015610683575b61046090611e15565b61046d6001805414611cc6565b600260015561047d821515611e52565b6001600160a01b031690811561064b576040516323b872dd60e01b815233600482015230602482015260448101829052602081606481876001600160a01b037f0000000000000000000000000000000000000000000000000000000000000000165af18015610611576104f791859161061c575b50611e8c565b604051636e553f6560e01b815260048101829052306024820152602081604481876001600160a01b037f0000000000000000000000000000000000000000000000000000000000000000165af19081156106115784916105ba575b507f776d73173002e44dc1f2aaed70d07890500e83089a9c21ef5d7e7ebf89250e3791604091848652600760205282862061058e828254611e08565b905584865260086020528286206105a6838254611e08565b905582519182526020820152a26001805580f35b90506020813d602011610609575b816105d560209383611aec565b8101031261060457517f776d73173002e44dc1f2aaed70d07890500e83089a9c21ef5d7e7ebf89250e37610552565b600080fd5b3d91506105c8565b6040513d86823e3d90fd5b61063e915060203d602011610644575b6106368183611aec565b810190611c6e565b386104f1565b503d61062c565b60405162461bcd60e51b815260206004820152601060248201526f5a45524f5f42454e454649434941525960801b6044820152606490fd5b506005546001600160a01b03163314610457565b503461020e578060031936011261020e57546040516001600160a01b039091168152602090f35b503461020e578060031936011261020e576040517f00000000000000000000000000000000000000000000000000000000000000006001600160a01b03168152602090f35b503461020e578060031936011261020e576040516370a0823160e01b8152306004820152906020826024817f00000000000000000000000000000000000000000000000000000000000000006001600160a01b03165afa9081156107a55790610772575b602090604051908152f35b506020813d60201161079d575b8161078c60209383611aec565b810103126106045760209051610767565b3d915061077f565b604051903d90823e3d90fd5b503461020e57602036600319011261020e576004356107d36001805414611cc6565b60026001556107e3811515611e52565b6040516323b872dd60e01b815233600482015230602482015260448101829052602081606481866001600160a01b037f0000000000000000000000000000000000000000000000000000000000000000165af180156109445761084c91849161061c5750611e8c565b604051636e553f6560e01b815260048101829052306024820152602081604481866001600160a01b037f0000000000000000000000000000000000000000000000000000000000000000165af1908115610944578391610912575b503383526007602052604083206108bf828254611e08565b90553383526008602052604083206108d8838254611e08565b905560405191825260208201527f776d73173002e44dc1f2aaed70d07890500e83089a9c21ef5d7e7ebf89250e3760403392a26001805580f35b90506020813d60201161093c575b8161092d60209383611aec565b810103126106045751386108a7565b3d9150610920565b6040513d85823e3d90fd5b503461020e57604036600319011261020e57610969611b24565b602435908115158092036109fb577f5ae067a93e2af6193017728cb7e9ef5af1d750a5beb7b16a05b54d56f6f355e39160409160018060a01b03855416331480156109e7575b6109b890611e15565b60018060a01b031690818552600660205282852060ff1981541660ff831617905582519182526020820152a180f35b506005546001600160a01b031633146109af565b8280fd5b503461020e57602036600319011261020e576020906040906001600160a01b03610a27611b24565b168152600883522054604051908152f35b503461020e57602036600319011261020e5760209060ff906040906001600160a01b03610a63611b24565b168152600684522054166040519015158152f35b50606036600319011261020e57610a8c611b24565b60243567ffffffffffffffff81116109fb57610aac903690600401611b50565b9190610abb6001805414611cc6565b60026001556001600160a01b03821680855260066020526040852054909390610ae69060ff16611cff565b3415610d9d576040516370a0823160e01b81523060048201527f00000000000000000000000000000000000000000000000000000000000000006001600160a01b0316939091869190602084602481895afa938415610944578394610d65575b508293948160405192839283378101848152039134905af1610b66611d63565b5015610d2d576020602492604051938480926370a0823160e01b82523060048301525afa8015610611578490610cf9575b610ba19250611d40565b60443581101580610cf0575b15610cb857604051636e553f6560e01b81526004810182905230602482015290602082604481876001600160a01b037f0000000000000000000000000000000000000000000000000000000000000000165af1918215610611578492610c84575b50338452600760205260408420610c26838254611e08565b9055338452600860205260408420610c3f828254611e08565b9055604051928352346020840152604083015260608201527f7f2f45a11fb33879a148fe292bbe682a942ce069beac3d9ddd0f76fce037df2160803392a26001805580f35b9091506020813d602011610cb0575b81610ca060209383611aec565b8101031261060457519038610c0e565b3d9150610c93565b60405162461bcd60e51b815260206004820152601060248201526f125394d551919250d251539517d3d55560821b6044820152606490fd5b50801515610bad565b506020823d602011610d25575b81610d1360209383611aec565b8101031261060457610ba19151610b97565b3d9150610d06565b60405162461bcd60e51b815260206004820152601060248201526f1493d555115497d0d0531317d190525360821b6044820152606490fd5b925092506020823d602011610d95575b81610d8260209383611aec565b8101031261060457869283925193610b46565b3d9150610d75565b60405162461bcd60e51b81526020600482015260086024820152670b48aa49ebe8aa8960c31b6044820152606490fd5b503461020e578060031936011261020e576005546040516001600160a01b039091168152602090f35b503461020e57602036600319011261020e5760206102d9610e15611b24565b611db6565b503461020e578060031936011261020e576003546040516001600160a01b039091168152602090f35b503461020e578060031936011261020e576020600454604051908152f35b503461020e57608036600319011261020e57610e7b611b24565b6024359061ffff8216808303610fcf576044359167ffffffffffffffff8316808403610fcb5760643591821515809303610fc757610ec360018060a01b038854163314611c36565b6001600160a01b0316928315610f92576127108111610f5e577f5098e1fc2b4a89749ea05a9f13a8a5dab88233470a389fa292cd39a4aafee66a956080956003549160ff60f01b8660f01b16928760ff60f01b199161ffff60f01b1617169061ffff60a01b9060a01b16179067ffffffffffffffff60b01b9060b01b161717600355604051938452602084015260408301526060820152a180f35b60405162461bcd60e51b815260206004820152600c60248201526b08c8a8abea89e9ebe90928e960a31b6044820152606490fd5b60405162461bcd60e51b815260206004820152600d60248201526c2d22a927afa322a2afa0a2222960991b6044820152606490fd5b8680fd5b8580fd5b8380fd5b503461020e578060031936011261020e57602067ffffffffffffffff60035460b01c16604051908152f35b503461020e578060031936011261020e57602061ffff60035460a01c16604051908152f35b503461020e57608036600319011261020e57600435611040611b3a565b60443567ffffffffffffffff8111610fcf57611060903690600401611b50565b6110706001809493945414611cc6565b600260015561107d611ecb565b156117eb576001600160a01b038216808652600660205260408620549091906110a89060ff16611cff565b3386526007602052604086205492851515806117e1575b156117a9576040516370a0823160e01b81523060048201527f00000000000000000000000000000000000000000000000000000000000000006001600160a01b03169290602081602481875afa90811561179e578991611768575b50604051635d043b2960e11b81526004810189905230602482018190526044820152906020826064818d7f00000000000000000000000000000000000000000000000000000000000000006001600160a01b03165af1918215611638578a92611730575b5081156116f9576040516370a0823160e01b815230600482015290602082602481895afa80156116ee578b906116b6575b6111b99250611d40565b908110611683578893604051636eb1769f60e11b8152306004820152866024820152602081604481855afa80156116785783918791611643575b501061152f575b5050828094504796826040519384928337810182815203925af161121c611d63565b50156114f75761122c8247611d40565b9182156113f3575b50606435821015806113ea575b156113ae5761126761271061125f61ffff60035460a01c1685611da3565b048093611d40565b908480808085335af1611278611d63565b501561137957848080808660018060a01b03600354165af1611298611d63565b5015611345576112a88482611d40565b33865260086020526040862054903387526007602052806040882055801560001461131c57505050835b33855260086020526040852055604051928352602083015260408201527f48e4221d9a54d1188c4b73128e52b526c7e4c1d002899d7204f46f12f398c1d060603392a26001805580f35b61132591611da3565b811561133157046112d2565b634e487b7160e01b86526012600452602486fd5b60405162461bcd60e51b815260206004820152600c60248201526b11551217d1915157d190525360a21b6044820152606490fd5b60405162461bcd60e51b815260206004820152600d60248201526c11551217d554d15497d1905253609a1b6044820152606490fd5b60405162461bcd60e51b8152602060048201526014602482015273125394d551919250d251539517d1551217d3d55560621b6044820152606490fd5b50811515611241565b6040516370a0823160e01b815230600482015285907f00000000000000000000000000000000000000000000000000000000000000006001600160a01b0316602082602481845afa9182156109445783926114c3575b5081611458575b505050611234565b809192939495503b156109fb57602483926040519485938492632e1a7d4d60e01b845260048401525af180156114b8576114a2575b506114989047611d40565b9038848180611450565b936114b1816114989396611aec565b939061148d565b6040513d87823e3d90fd5b9091506020813d6020116114ef575b816114df60209383611aec565b810103126109fb57519038611449565b3d91506114d2565b60405162461bcd60e51b815260206004820152601060248201526f1493d555115497d4d5d05417d190525360821b6044820152606490fd5b91935091936040519163095ea7b360e01b83528160048401528960248401526020836044818d855af192831561163857602093611573918c9161161b575b50611c86565b60405193849263095ea7b360e01b845260048401526024830152818a604482800301925af19081156116105787916115f1575b50156115b65781869138806111fa565b60405162461bcd60e51b81526020600482015260136024820152721054141493d59157d493d555115497d1905253606a1b6044820152606490fd5b61160a915060203d602011610644576106368183611aec565b386115a6565b6040513d89823e3d90fd5b6116329150853d8711610644576106368183611aec565b3861156d565b6040513d8c823e3d90fd5b9150506020813d602011611670575b8161165f60209383611aec565b81010312610fcb57829051386111f3565b3d9150611652565b6040513d88823e3d90fd5b60405162461bcd60e51b815260206004820152600b60248201526a5753545f4d495353494e4760a81b6044820152606490fd5b506020823d6020116116e6575b816116d060209383611aec565b810103126116e2576111b991516111af565b8a80fd5b3d91506116c3565b6040513d8d823e3d90fd5b60405162461bcd60e51b815260206004820152600f60248201526e16915493d7d054d4d15514d7d3d555608a1b6044820152606490fd5b9091506020813d602011611760575b8161174c60209383611aec565b8101031261175c5751903861117e565b8980fd5b3d915061173f565b90506020813d602011611796575b8161178360209383611aec565b8101031261179257513861111a565b8880fd5b3d9150611776565b6040513d8b823e3d90fd5b60405162461bcd60e51b815260206004820152601060248201526f10905117d4d210549157d05353d5539560821b6044820152606490fd5b50838611156110bf565b60405162461bcd60e51b815260206004820152600f60248201526e15d2551211149055d7d313d0d2d151608a1b6044820152606490fd5b503461020e578060031936011261020e5761184760018060a01b038254163314611c36565b60405163095ea7b360e01b81526001600160a01b037f0000000000000000000000000000000000000000000000000000000000000000811660048301819052602483018490528392917f0000000000000000000000000000000000000000000000000000000000000000169060208360448187865af1908115610611576118d960449260209587916119735750611c86565b604051948593849263095ea7b360e01b8452600484015260001960248401525af1908115611968578291611949575b50156119115780f35b60405162461bcd60e51b815260206004820152601060248201526f1054141493d59157d3505617d190525360821b6044820152606490fd5b611962915060203d602011610644576106368183611aec565b38611908565b6040513d84823e3d90fd5b6116329150863d8811610644576106368183611aec565b503461020e57602036600319011261020e5760206102d96119a9611b24565b611b7e565b905034611ae85781600319360112611ae85781600254908160011c91600181168015611ade575b602084108114611aca578385528492918115611aab5750600114611a4d575b611a0092500382611aec565b604051809260208252825192836020840152815b848110611a3557505091604092838284010152601f80199101168101030190f35b60208282018101516040888401015286945001611a14565b50600284529083907f405787fa12a823e0f2b7631cc41b3ba8828b3321ca811111fa75cd3aa3bb5ace5b818310611a8f575050906020611a00928201016119f4565b6020919350806001915483858801015201910190918392611a77565b60209250611a0094915060ff191682840152151560051b8201016119f4565b634e487b7160e01b86526022600452602486fd5b92607f16926119d5565b5080fd5b90601f8019910116810190811067ffffffffffffffff821117611b0e57604052565b634e487b7160e01b600052604160045260246000fd5b600435906001600160a01b038216820361060457565b602435906001600160a01b038216820361060457565b9181601f840112156106045782359167ffffffffffffffff8311610604576020838186019501011161060457565b6001600160a01b03166000908152600760205260409020548015611c305760405163266d6a8360e11b815260048101919091526020816024817f00000000000000000000000000000000000000000000000000000000000000006001600160a01b03165afa908115611c2457600091611bf5575090565b90506020813d602011611c1c575b81611c1060209383611aec565b81010312610604575190565b3d9150611c03565b6040513d6000823e3d90fd5b50600090565b15611c3d57565b60405162461bcd60e51b81526020600482015260096024820152682727aa2fa7aba722a960b91b6044820152606490fd5b90816020910312610604575180151581036106045790565b15611c8d57565b60405162461bcd60e51b81526020600482015260116024820152701054141493d59157d6915493d7d1905253607a1b6044820152606490fd5b15611ccd57565b60405162461bcd60e51b815260206004820152600a6024820152695245454e5452414e435960b01b6044820152606490fd5b15611d0657565b60405162461bcd60e51b81526020600482015260126024820152711493d555115497d393d517d0531313d5d15160721b6044820152606490fd5b91908203918211611d4d57565b634e487b7160e01b600052601160045260246000fd5b3d15611d9e573d9067ffffffffffffffff8211611b0e5760405191611d92601f8201601f191660200184611aec565b82523d6000602084013e565b606090565b81810292918115918404141715611d4d57565b611dbf81611b7e565b6001600160a01b0390911660009081526008602052604090205480821015611dfc5790611deb91611d40565b600160ff1b8114611d4d5760000390565b611e0591611d40565b90565b91908201809211611d4d57565b15611e1c57565b60405162461bcd60e51b815260206004820152600e60248201526d1393d517d055551213d49256915160921b6044820152606490fd5b15611e5957565b60405162461bcd60e51b815260206004820152600b60248201526a5a45524f5f41535345545360a81b6044820152606490fd5b15611e9357565b60405162461bcd60e51b815260206004820152601060248201526f1514905394d1915497d25397d190525360821b6044820152606490fd5b60035460ff8160f01c16908115611ee0575090565b67ffffffffffffffff915060b01c1642101590565b6040516370a0823160e01b81523060048201527f00000000000000000000000000000000000000000000000000000000000000006001600160a01b031690602081602481855afa908115611c2457600091611f88575b508015611f815760209060246040518094819363266d6a8360e11b835260048301525afa908115611c2457600091611bf5575090565b5050600090565b906020823d602011611fb2575b81611fa260209383611aec565b8101031261020e57505138611f4b565b3d9150611f9556fea26469706673582212204c3547ec639e69f091b76d0cc51c7d2f9fbe9ac8edffeb9b75efede5254d008864736f6c634300081c0033","linkReferences":{}},"methodIdentifiers":{"MELLOW_VAULT()":"89a64344","WETH()":"ad5c4648","WSTETH()":"d9fb643a","canWithdraw()":"b51459fe","currentAssetsOf(address)":"099476d0","depositETHViaRouter(address,bytes,uint256)":"604e85b9","depositWstETH(uint256)":"866c0101","depositWstETHFor(uint256,address)":"8f3d2d75","feeBps()":"24a9d853","feeRecipient()":"46904840","goalWstETH()":"3afc2976","isRouterAllowed(address)":"61771e49","name()":"06fdde03","operator()":"570ca735","owner()":"8da5cb5b","profitOf(address)":"54198ce9","rawWstETHBalance()":"884086d8","resetMellowAllowance()":"1d117080","setGoalWstETH(uint256)":"dbe3469b","setOperator(address)":"b3ab15fb","setParams(address,uint16,uint64,bool)":"290f2539","setRouterAllowed(address,bool)":"6cc88edb","totalWstETHAssets()":"d374da9f","transferOwnership(address)":"f2fde38b","unlockTime()":"251c1aa3","userPrincipal(address)":"62dab626","userShares(address)":"de69b3aa","withdrawSplitToETH(uint256,address,bytes,uint256)":"1fa0ee44","withdrawalsEnabled()":"d0dbcd24"},"id":1}